:100000000C94B3000C94D4000C94D4000C94D40041
:100010000C94D4000C9418030C94F3020C94D400A8
:100020000C94D4000C94D4000C94D4000C94D40000
:100030000C94D4000C94D4000C94D4000C94D400F0
:100040000C94D4000C94D4000C94D4000C94D400E0
:100050000C94D4000C94D4000C94D4000C94D400D0
:100060000C94D4000C94D4000C94D4000C94D400C0
:100070000C94D4000C94D4000C94D4000C94D400B0
:100080000C94D4000C94D4000C94D4000C94D400A0
:100090000C94D4000C94D4000C94D4000C94D40090
:1000A0000C94D4000C94D4000C94D4000C94D40080
:1000B0000C94D4000C94D4000C94D4000C94D40070
:1000C0000C94D4000C94D4000C94D4000C94D40060
:1000D0000C94D4000C94D4000C94D4000C94D40050
:1000E0000C94D40007634236B79BD8A71A396856D8
:1000F00018AEBAAB558C1D3CB7CC5763BD6DEDFD4A
:10010000753EF6177231BF000000803F0800000006
:10011000BE922449123EABAAAA2ABECDCCCC4C3EFC
:1001200000000080BEABAAAAAA3E00000000BF00EB
:100130000000803F0000000000084178D3BB4387E7
:10014000D1133D190E3CC3BD4282AD2B3E68EC82FB
:1001500076BED98FE1A93E4C80EFFFBE01C4FF7F80
:100160003F000000000011241FBECFEFD1E2DEBF30
:10017000CDBF00E00CBF12E0A0E0B2E0E4E1FEE1A0
:1001800000E00BBF02C007900D92A230B107D9F773
:1001900012E0A2E0B2E001C01D92A732B107E1F780
:1001A0000E94090B0C94080F0C94000087B1876F14
:1001B00087B988B1807888B9089510BA11BA1092B9
:1001C0000701109208010895EAE7F0E0108210920A
:1001D0007B0080E280937C0080E880BF86E880839B
:1001E000089586E69EE00197F1F700004098419857
:1001F00080E388B9429AEFEFF7E43197F1F700C056
:1002000000004298E6E6FEE03197F1F700004098E2
:10021000419888B9429AEFEFF7E43197F1F700C0BF
:1002200000004298E6E6FEE03197F1F700004098C2
:10023000419888B9429A8FEF97E40197F1F700C08F
:1002400000004298E6E6FEE03197F1F700004098A2
:10025000419880E288B9429A8FEF97E40197F1F7CD
:1002600000C000004298089598B19F7098B998B165
:10027000282F207F922B98B940984198429AEFEF0F
:10028000F7E43197F1F700C00000429898B19F70F1
:1002900098B998B18295807F892B88B94098419808
:1002A000429A8FEF97E40197F1F700C0000042985F
:1002B00008950E94F10086E69EE00197F1F70000A4
:1002C00088E20E94340181E00E94340186E00E94AD
:1002D00034018EE00E94340180E80E9434010895C8
:1002E00098B19F7098B998B1282F207F922B98B918
:1002F000409A4198429AEFEFF7E43197F1F700C046
:100300000000429898B19F7098B998B18295807F0B
:10031000892B88B9409A4198429A8FEF97E40197C8
:10032000F1F700C000004298089580E80E9434016F
:100330000895CF93DF93EC018881882331F02196D3
:100340000E94700189918823D9F7DF91CF91089598
:10035000823079F0833018F48130C9F405C08330DD
:1003600069F08430A1F40FC0862F81580E943401B7
:100370000895862F81540E9434010895862F8D564A
:100380000E9434010895862F8D520E9434010895F1
:100390000F931F93CF93DF938A01E901882311F014
:1003A000662319F40E94950102C00E94A801C5307D
:1003B000D10571F4C80160E177E20E94F40ECB012F
:1003C000C09690931B0280931A020E94700103C092
:1003D000C430D105B9F4C80168EE73E00E94F40E90
:1003E000CB0170931D0260931C026AE070E00E94D2
:1003F000F40EC09690932602809325020E9470010D
:1004000081E001C080E0C330D10511F08130B1F44A
:10041000C80164E670E00E94F40ECB0170931D02E7
:1004200060931C026AE070E00E94F40EC096909304
:100430002202809321020E94700181E0C230D10526
:1004400011F08130B1F42AE030E0C801B9010E9416
:10045000F40ECB0170931D0260931C02B9010E943F
:10046000F40EC0969093200280931F020E947001A8
:1004700081E0C130D10511F0813061F4C8016AE03A
:1004800070E00E94F40EC0969093240280932302A1
:100490000E947001C630D1051CF085E40E947001F5
:1004A000DF91CF911F910F910895E1E8F0E0108264
:1004B0008CEF8093850081E08093840093E090939B
:1004C00089008FEF8093880090938B0080938A003F
:1004D00090938D0080938C0090938700809386008A
:1004E0008BEA80938000109282008CE080830895D4
:1004F000259A2D9A08950F931F93682F70E080E03E
:1005000090E00E949E0C2FEE39EC43E95FE30E94DD
:100510008F0DB62FA72F382F292F60E070E080E8CD
:100520009FE3422F0B2F1A2F232F342FA90198015D
:100530000E94050C2AE939EF4EE255E40E942C0D89
:1005400020E030E040E251E40E942C0D0E946D0C4E
:10055000882777FD8095982F0E94A00C0E946D0C33
:10056000862F972F23E08132920710F080E293E0EC
:100570001F910F91089581B18F6081B982B1807F01
:1005800082B9EAE0F1E0808188618083EBE0F1E00C
:1005900080818861808308956C98749A08956D981D
:1005A000759A08950E94BB020E94CC020E94CF025D
:1005B0000E94D6000E94DD000E94BB020E947802C9
:1005C0000895F894EAE6F0E0808182608083EC9AF6
:1005D00078940895F894EAE6F0E08081886080835A
:1005E000ED9A789408951F920F920FB60F921124EE
:1005F0008F939F93AF93BF938091020290910302D8
:10060000A0910402B09105020196A11DB11D809335
:10061000020290930302A0930402B0930502BF91DB
:10062000AF919F918F910F900FBE0F901F901895D3
:100630001F920F920FB60F9211248F939F93AF9337
:10064000BF938091060290910702A0910802B09199
:1006500009020196A11DB11D809306029093070225
:10066000A0930802B0930902BF91AF919F918F911F
:100670000F900FBE0F901F90189592B1907F8F70C2
:10068000982B92B9089586E00E943D03089585E075
:100690000E943D0308958AE00E943D03089584E08E
:1006A0000E943D03089582E00E943D03089580E08A
:1006B0000E943D0308950F931F93CF93BC0180E0E8
:1006C00090E00E949E0C28E431EE42E850E40E9443
:1006D000050C0E94720CDC01CB01A0E0B0E010928E
:1006E000020210920302109204021092050210926C
:1006F0000602109207021092080210920902F1E01D
:10070000C0E0409102025091030260910402709196
:100710000502009106021091070220910802309113
:100720000902EF2F481759076A077B0708F4EC2FD7
:10073000EE2349F44F2F081719072A073B0708F43F
:100740004C2F4423F1F20E945703CF911F910F9138
:100750000895BC0180E090E00E949E0C25EE30EDF3
:100760004AEA50E40E94050C0E94720C462F572F53
:10077000682F792F10920202109203021092040245
:10078000109205028091020290910302A09104024E
:10079000B0910502481759076A077B0798F70E942E
:1007A00057030895CF93DF93EC010E944303CE01DA
:1007B0000E94A903DF91CF910895CF93DF93EC01BD
:1007C0000E944703CE010E945B03DF91CF91089501
:1007D000CF93DF93EC010E944B03CE010E945B0399
:1007E000DF91CF910895CF93DF93EC010E944F03E7
:1007F000CE01880F991F0E945B03DF91CF9108956E
:10080000CF93DF93EC010E945303CE01880F991F11
:100810000E945B03DF91CF91089510928900682FA9
:1008200070E080E090E00E949E0C2BE734E14EEEF9
:100830005FE30E94050C20E030E04CE052E40E94AF
:10084000A10B0E94720C609388000895F8940E9496
:10085000D2020E94E1020E94EA0278940895E1E245
:10086000F1E010828FEF8093250191E090932401B5
:10087000109229018093280110922B0180932A0164
:1008800010922D0180932C0189EA809320018BE046
:1008900080830895F8940E94D2020E94E4000E948E
:1008A0002F040E94550278940895883018F098E03B
:1008B00090937B008770806280937C00EAE7F0E091
:1008C000808180648083808184FFFDCF8091790066
:1008D000EAE7F0E090819061908310927B000895A8
:1008E000CF93DF93D82FC62F842F0E945504482F13
:1008F00080931E028D2F6C2F50E023E030E00E9489
:10090000C801DF91CF9108958093280160932A0157
:10091000089580910C02803148F580910B0280315E
:1009200028F580910A02803108F583E00E94550481
:1009300080930C0282E00E94550480930B0281E0B8
:100940000E94550480930A020E94430386E966E9E7
:100950000E94840480910C02803140F480910B024B
:10096000803120F480910A028031F8F283E00E9405
:10097000550480930C0282E00E94550480930B0280
:1009800081E00E94550480930A028BE00E94550486
:100990000E947B029093100280930F0287E00E94D6
:1009A000550480930002109201021092150281E01A
:1009B00061E043E00E94700481E065E042E00E9453
:1009C000700481E069E041E00E94700480910B02B4
:1009D000813148F081E0809315020E94430386E94B
:1009E00066E90E94840480910C02803168F4809151
:1009F0001502882349F481E0809315020E94430385
:100A000082E862E30E94840480910A02803168F4E3
:100A100080911502882349F481E0809315020E9499
:100A2000430382E362E80E94840480910B028031D8
:100A300070F480910C02803150F480910A02803170
:100A400030F40E94430382E862E30E9484048091B0
:100A5000000290910102803191050CF06AC08091F2
:100A60000F029091100221E08331920708F061C0DB
:100A70000E9457038FEF9FEBA1E281509040A0406E
:100A8000E1F700C0000080911602909117028D9648
:100A900090931702809316020E9457033B9A439843
:100AA00086B1886088B98FEF9FEFACE281509040AB
:100AB000A040E1F700C0000086B1877F88B98FEFC2
:100AC0009FEFACE281509040A040E1F700C00000F1
:100AD000809116020E940D048FEF9FEFACE28150CF
:100AE0009040A040E1F700C000000E9457038FEF44
:100AF0009FEFACE281509040A040E1F700C00000C1
:100B000084EB90E00E94DD038FEF9FEFACE2815019
:100B10009040A040E1F700C000000E9457038FEF13
:100B20009FEFACE281509040A040E1F700C0000090
:100B300020C080910F02909110028436910508F038
:100B400015CF0E9457038FEF9FEFACE2815090408A
:100B5000A040E1F700C0000084EB90E00E94DD03BC
:100B60008FEF9FEBA1E281509040A040E1F700C0E1
:100B700000001092140283E00E94550480930C023E
:100B800082E00E94550480930B0281E00E9455048C
:100B900080930A028BE00E9455040E947B0290938E
:100BA000100280930F0289E00E9455040E947B028C
:100BB00090931202809311021092150281E061E07D
:100BC00043E00E94700481E065E042E00E9470040E
:100BD00081E069E041E00E94700480910B02813164
:100BE00048F081E0809315020E94430386E966E99C
:100BF0000E94840480910C02803168F48091150277
:100C0000882349F481E0809315020E94430382E81F
:100C100062E30E94840480910A02803168F480912A
:100C20001502882349F481E0809315020E94430352
:100C300082E362E80E94840480910B02803188F490
:100C400080910C02803168F480910A02803148F46E
:100C50000E94430381E08093140282E362E80E94D1
:100C600084048091110290911202A2E08B389A07BD
:100C700018F081E08093140280910B02813108F416
:100C80007ACF80910F0290911002B2E08B389B07CF
:100C900008F471CF80911402813009F06CCF83E0A9
:100CA0000E94550480930C0282E00E9455048093B8
:100CB0000B0281E00E94550480930A028BE00E949F
:100CC00055040E947B029093100280930F021092B1
:100CD000150281E061E043E00E94700481E065E07C
:100CE00042E00E94700481E069E041E00E947004EB
:100CF00080910B02813148F081E0809315020E94BF
:100D0000430386E966E90E94840480910C028031E5
:100D100068F480911502882349F481E080931502DC
:100D20000E94430382E862E30E94840480910A02E5
:100D3000803168F480911502882349F481E0809322
:100D400015020E94430382E362E80E9484048091BA
:100D50000B02803108F0A3CF80910C02803108F0A3
:100D60009ECF80910A028031C0F480910F02909151
:100D7000100221E08139920780F00E94430386E946
:100D800066E90E94840480910B02803108F087CFCD
:100D900080910C02803108F082CF80910A0280316C
:100DA00008F07DCF80910F0290911002A1E081396F
:100DB0009A0708F074CF893C9105B0F08BE00E944F
:100DC00055040E947B029093100280930F020E94B0
:100DD000430384EB64EB0E94840480910F029091A2
:100DE0001002893C910550F78AE590E00E940004CA
:100DF00089E00E9455040E947B0290931202809326
:100E0000110283E00E94550480930C0282E00E944C
:100E1000550480930B0281E00E94550480930A02DE
:100E20008091110290911202893C910530F00E944C
:100E3000430382E362E80E9484048091110290914E
:100E40001202883C910530F40E94430382E862E379
:100E50000E9484048091110290911202883C9105B5
:100E600031F40E9443038FEF6FEF0E94840480915E
:100E70000B02813148F480910C02813128F4809179
:100E80000A02813108F4B4CF83E00E9455048093B4
:100E90000C0282E00E94550480930B0281E00E94C4
:100EA000550480930A021092150281E061E043E04C
:100EB0000E94700481E065E042E00E94700481E0DD
:100EC00069E041E00E94700480910B02813148F09A
:100ED00081E0809315020E94430386E966E90E943F
:100EE000840480910C02803168F48091150288237B
:100EF00049F481E0809315020E94430382E862E393
:100F00000E94840480910A02803168F48091150265
:100F1000882349F481E0809315020E94430382E311
:100F200062E80E94840480910B02813108F4ACCF06
:100F300080910C02813108F4A7CF80910A0281319F
:100F400008F4A2CF8CE590E00E94F3038FEF9FEFAF
:100F5000ACE281509040A040E1F700C000000E9448
:100F600057038FEF9FEFACE281509040A040E1F734
:100F700000C00000809113028F5F809313020895D8
:100F800080910C02803148F580910B02803128F568
:100F900080910A02803108F583E00E945504809315
:100FA0000C0282E00E94550480930B0281E00E94B3
:100FB000550480930A020E94430386E966E90E9471
:100FC000840480910C02803140F480910B028031C6
:100FD00020F480910A028031F8F283E00E945504E7
:100FE00080930C0282E00E94550480930B0281E002
:100FF0000E94550480930A028BE00E9455040E94CF
:101000007B029093100280930F0289E00E945504A6
:101010000E947B02909312028093110287E00E944B
:10102000550480930002109201021092150281E093
:1010300061E043E00E94700481E065E042E00E94CC
:10104000700481E069E041E00E94700480910B022D
:10105000813148F081E0809315020E94430386E9C4
:1010600066E90E94840480910C02803168F48091CA
:101070001502882349F481E0809315020E944303FE
:1010800082E862E30E94840480910A02803168F45D
:1010900080911502882349F481E0809315020E9413
:1010A000430382E362E80E94840480910B02803152
:1010B00070F480910C02803150F480910A028031EA
:1010C00030F40E94430382E362E80E94840480912A
:1010D000000290910102803191050CF068C080916E
:1010E0000F029091100221E08331920708F05FC057
:1010F0000E94570380911602909117028D9690934B
:101100001702809316028FEF9FEBA1E2815090406F
:10111000A040E1F700C000003B9A439886B1886088
:1011200088B98FEF9FEFACE281509040A040E1F78B
:1011300000C0000086B1877F88B98FEF9FEFACE2D7
:1011400081509040A040E1F700C00000809116025D
:101150000E940D048FEF9FEFACE281509040A040C1
:10116000E1F700C000000E9457038FEF9FEFACE251
:1011700081509040A040E1F700C0000084EB90E077
:101180000E94E8038FEF9FEFACE281509040A040B7
:10119000E1F700C000000E9457038FEF9FEFACE221
:1011A00081509040A040E1F700C000002BC080912A
:1011B0000F02909110028436910508F00ECF0E9424
:1011C00057038FEF9FEFACE281509040A040E1F7D2
:1011D00000C0000084EB90E00E94E8038FEF9FEFD7
:1011E000ACE281509040A040E1F700C000000E94B6
:1011F00057038FEF9FEFACE281509040A040E1F7A2
:1012000000C000001092140283E00E9455048093F5
:101210000C0282E00E94550480930B0281E00E9440
:10122000550480930A028BE00E9455040E947B02C1
:101230009093100280930F028DE00E9455040E944B
:101240007B0290930E0280930D021092150281E0B2
:1012500061E043E00E94700481E065E042E00E94AA
:10126000700481E069E041E00E94700480910B020B
:10127000813148F081E0809315020E94430386E9A2
:1012800066E90E94840480910C02803168F48091A8
:101290001502882349F481E0809315020E944303DC
:1012A00082E862E30E94840480910A02803168F43B
:1012B00080911502882349F481E0809315020E94F1
:1012C000430382E362E80E94840480910B02803130
:1012D00088F480910C02803168F480910A02803198
:1012E00048F40E94430381E08093140282E862E3A1
:1012F0000E94840480910D0290910E02A2E08B382E
:101300009A0718F081E08093140280910B028131DA
:1013100008F47ACF80910F0290911002B2E08B38DE
:101320009B0708F471CF80911402813009F06CCFD3
:1013300083E00E94550480930C0282E00E945504D1
:1013400080930B0281E00E94550480930A028BE097
:101350000E9455040E947B029093100280930F021A
:101360001092150281E061E043E00E94700481E088
:1013700065E042E00E94700481E069E041E00E9483
:10138000700480910B02813148F081E08093150256
:101390000E94430386E966E90E94840480910C025E
:1013A000803168F480911502882349F481E08093AC
:1013B00015020E94430382E862E30E948404809144
:1013C0000A02803168F480911502882349F481E093
:1013D000809315020E94430382E362E80E94840422
:1013E00080910B02803108F0A3CF80910C028031F4
:1013F00008F09ECF80910A028031C0F480910F02E4
:101400009091100221E08139920780F00E944303FD
:1014100086E966E90E94840480910B02803108F01D
:1014200087CF80910C02803108F082CF80910A0230
:10143000803108F07DCF80910F0290911002A1E0E1
:1014400081399A0708F074CF893C9105B0F08BE0A0
:101450000E9455040E947B029093100280930F0219
:101460000E94430382E862E80E94840480910F0294
:1014700090911002893C910550F78AE590E00E9416
:10148000000489E00E9455040E947B02909312029E
:101490008093110283E00E94550480930C0282E045
:1014A0000E94550480930B0281E00E9455048093B2
:1014B0000A028091110290911202893C910530F04C
:1014C0000E94430382E362E80E9484048091110237
:1014D00090911202883C910530F40E94430382E807
:1014E00062E30E9484048091110290911202883C70
:1014F000910531F40E9443038FEF6FEF0E94840443
:1015000080910B02813148F480910C02813128F4E2
:1015100080910A02813108F4B4CF83E00E9455041F
:1015200080930C0282E00E94550480930B0281E0BC
:101530000E94550480930A021092150281E061E036
:1015400043E00E94700481E065E042E00E94700484
:1015500081E069E041E00E94700480910B028131DA
:1015600048F081E0809315020E94430386E966E912
:101570000E94840480910C02803168F480911502ED
:10158000882349F481E0809315020E94430382E896
:1015900062E30E94840480910A02803168F48091A1
:1015A0001502882349F481E0809315020E944303C9
:1015B00082E362E80E94840480910B02813108F486
:1015C000ACCF80910C02813108F4A7CF80910A0240
:1015D000813108F4A2CF8CE590E00E94F3038FEFF5
:1015E0009FEFACE281509040A040E1F700C00000C6
:1015F0000E9457038FEF9FEBA1E281509040A040E3
:10160000E1F700C00000809113028F5F8093130206
:1016100008950E9426040E944A040E94F1000E943C
:10162000590180E00E940D048FEF9FEFACE28150E2
:101630009040A040E1F700C0000083EC90E00E94E1
:10164000D2034DC08EE091E00E94D2030E94570366
:101650008FEF9FEBA1E281509040A040E1F700C0E6
:10166000000089E00E9455040E947B0290931202C0
:1016700080931102893C910590F08AE590E00E94E8
:10168000F3030E9457038FEF9FEBA1E2815090403C
:10169000A040E1F700C000000E94890420C080E95A
:1016A00091E00E94D2030E9457038FEF9FEBA1E2CB
:1016B00081509040A040E1F700C000008AE590E032
:1016C0000E94F3030E9457038FEF9FEBA1E281502A
:1016D0009040A040E1F700C000000E94C007809148
:1016E0001302843008F4AECF0E9457038FEF9FEFB0
:1016F000ACE281509040A040E1F700C000003B9A6E
:10170000439886B1886088B98FEF9FEFA0EEB0E074
:1017100081509040A040B040D9F700C0000086B191
:10172000877F88B98FEF9FEFA0EEB0E081509040A7
:10173000A040B040D9F700C0000080E090E00895DC
:101740005058BB27AA270ED04DC13ED130F043D10F
:1017500020F031F49F3F11F41EF433C10EF4E095F4
:10176000E7FB29C1E92F4FD180F3BA17620773074E
:101770008407950718F071F49EF567C10EF4E095A3
:101780000B2EBA2FA02D0B01B90190010C01CA013B
:10179000A0011124FF27591B99F0593F50F4503EE6
:1017A00068F11A16F040A22F232F342F4427585FD8
:1017B000F3CF469537952795A795F0405395C9F7F0
:1017C0007EF41F16BA0B620B730B840BBAF09150A8
:1017D000A1F0FF0FBB1F661F771F881FC2F70EC047
:1017E000BA0F621F731F841F48F48795779567951A
:1017F000B795F7959E3F08F0B3CF9395880F08F003
:101800009927EE0F9795879508950CD0EBC0E3D0FC
:1018100040F0DAD030F021F45F3F19F0CCC0511124
:1018200015C1CFC0F0D098F39923C9F35523B1F374
:10183000951B550BBB27AA2762177307840738F03F
:101840009F5F5F4F220F331F441FAA1FA9F333D09E
:101850000E2E3AF0E0E830D091505040E695001C52
:10186000CAF729D0FE2F27D0660F771F881FBB1F0E
:10187000261737074807AB07B0E809F0BB0B802DE8
:10188000BF01FF2793585F4F2AF09E3F510568F034
:1018900092C0DCC05F3FECF3983EDCF38695779511
:1018A0006795B795F7959F5FC9F7880F911D969536
:1018B000879597F90895E1E0660F771F881FBB1F92
:1018C000621773078407BA0720F0621B730B840B3F
:1018D000BA0BEE1F88F7E095089504D06894B11113
:1018E000B5C0089598D088F09F5790F0B92F9927E8
:1018F000B751A0F0D1F0660F771F881F991F1AF01B
:10190000BA95C9F712C0B13081F09FD0B1E0089507
:101910009CC0672F782F8827B85F39F0B93FCCF388
:10192000869577956795B395D9F73EF49095809510
:10193000709561957F4F8F4F9F4F0895E89409C030
:1019400097FB3EF490958095709561957F4F8F4FF2
:101950009F4F9923A9F0F92F96E9BB279395F69508
:10196000879577956795B795F111F8CFFAF4BB0F86
:1019700011F460FF1BC06F5F7F4F8F4F9F4F16C0EA
:10198000882311F096E911C0772321F09EE8872F74
:10199000762F05C0662371F096E8862F70E060E030
:1019A0002AF09A95660F771F881FDAF7880F9695A9
:1019B000879597F9089597F99F6780E870E060E050
:1019C00008959FEF80EC089500240A9416161706D8
:1019D00018060906089500240A9412161306140620
:1019E00005060895092E0394000C11F4882352F083
:1019F000BB0F40F4BF2B11F460FF04C06F5F7F4F3B
:101A00008F4F9F4F089557FD9058440F551F59F021
:101A10005F3F71F04795880F97FB991F61F09F3FDB
:101A200079F087950895121613061406551FF2CF04
:101A30004695F1DF08C0161617061806991FF1CF54
:101A400086957105610508940895E894BB2766277B
:101A50007727CB0197F908950BD0C4CFB5DF28F0D5
:101A6000BADF18F0952309F0A6CFABCF1124EECF43
:101A7000CADFA0F3959FD1F3950F50E0551F629FE9
:101A8000F001729FBB27F00DB11D639FAA27F00DD7
:101A9000B11DAA1F649F6627B00DA11D661F829FFE
:101AA0002227B00DA11D621F739FB00DA11D621FE3
:101AB000839FA00D611D221F749F3327A00D611D00
:101AC000231F849F600D211D822F762F6A2F1124E2
:101AD0009F5750408AF0E1F088234AF0EE0FFF1F35
:101AE000BB1F661F771F881F91505040A9F79E3F6C
:101AF000510570F060CFAACF5F3FECF3983EDCF366
:101B0000869577956795B795F795E7959F5FC1F7A8
:101B1000FE2B880F911D9695879597F90895FA01E8
:101B2000EE0FFF1F30962105310599F16115710502
:101B300061F48038BFE39B0749F1689490388105D0
:101B400061F08038BFEF9B0741F0992342F5FF3FDA
:101B5000E1053105210511F1E8940894E795D901D3
:101B6000AA2329F4AB2FBE2FF85FD0F310C0FF5F7C
:101B700070F4A695E0F7F73950F019F0FF3A38F411
:101B80009F779F930CD00F9007FC905808953EF0DC
:101B900018CF60E070E080E89FE308954FE79F77FB
:101BA0005F934F933F932F939ED02F913F914F91EF
:101BB0005F9152DF05C019F40EF0FDCE46CF01CF84
:101BC0002ADFC8F39638C0F707F80F92E8942BE3A2
:101BD0003AEA48EB5FE74EDF0F920F920F924DB754
:101BE0005EB70F92C0D0E4EEF0E016D04F915F9157
:101BF000EF91FF91E595EE1FFF1F49F0FE57E0685A
:101C00004427EE0F441FFA95E1F74195550B32D06A
:101C10000F9007FE26C00895DF93CF931F930F9375
:101C2000FF92EF92DF927B018C01689405C0DA2E5F
:101C3000EF011EDFFE01E894A591259135914591B4
:101C40005591AEF3EF018EDDFE019701A801DA9404
:101C500079F7DF90EF90FF900F911F91CF91DF9177
:101C600008959B01AC0160E070E080E89FE3CDCD7A
:101C7000A2CEACC0D0DEE8F39923D9F3940F511D66
:101C8000BBF39150504094F059F0882332F0660F26
:101C9000771F881F91505040C1F79E3F510544F770
:101CA000880F911D9695879597F908955F3FACF041
:101CB000983E9CF0BB27869577956795B79508F475
:101CC000B1609395C1F7BB0F58F711F460FFE8CFEF
:101CD0006F5F7F4F8F4F9F4FE3CFB8CE0EF076C030
:101CE00070CE689468CE97DEC8F39923D1F3C6F31B
:101CF000DF93CF931F930F93FF92C92FDD27882384
:101D00002AF02197660F771F881FDAF720E030E06E
:101D100040E85FEB9FE3883920F0803E30F0219669
:101D20008F770FDDECE0F1E003C00BDDE9E3F1E0DC
:101D300073DF8B01BE01EC01FB2E6F5771097595A6
:101D4000771F880B990BFCDD28E132E741E35FE365
:101D50008FDEAF2D9801AE01FF900F911F91CF91B3
:101D6000DF9100DD3FCEFA01DC01AA0FBB1F9B0112
:101D7000AC01BF5728F422273327442750781FC0CF
:101D8000B75188F4AB2F0024469537952795011C51
:101D9000A395D2F3002069F0220F331F441FB3959F
:101DA000DAF30DD0CDCC61307105A0E88A07B946D1
:101DB00030F49B01AC01662777278827907830960E
:101DC00021F0208331834283538308959F3F31F074
:101DD000915020F4879577956795B795880F911D59
:101DE0009695879597F90895AA1BBB1B51E107C0EB
:101DF000AA1FBB1FA617B70710F0A61BB70B881F9B
:101E0000991F5A95A9F780959095BC01CD01089529
:041E1000F894FFCF74
:021E14000100CB
:00000001FF
